:020000020000FC
:1000000000C00E9430000FEF07B9E0E0F7E000E326
:10001000A02E07E3B02EFF240E94B100872F88B9DD
:100020008F3FD1F08A3060F48A0D8193F082E0E056
:10003000F7E0002711270E9472000E948200ECCF97
:100040008B0D8193F082E0E0F7E0002711270E94FA
:1000500072000E948200E0CF01E00E944600DCCFE7
:1000600007EF01B90E94A9000E94A90002E00E94C6
:10007000460008E20E9446000CE00E94460001E0B3
:100080000E94460000E80E94460008951F930E94C7
:100090008F00102F107F12B900000000129A00008C
:1000A000000012980295007F02B9129A0000000029
:1000B00012981F9108951F930E948F00102F107F98
:1000C000116012B90000129A000012980000029507
:1000D000007F007F016002B90000129A00001298B0
:1000E0001F910895003031F41F701068012F0E9495
:1000F00046000895013029F41F70106C012F0E94F2
:1001000046000895FF93EF930F930191003019F08B
:100110000E945B00FACF0F91EF91FF9108950F932A
:1001200007E001B902EF02B90000129A00000000D6
:1001300000B112980000129A00000000129800000E
:100140000078003891F307EF01B900E002B90F9190
:1001500008950AE01AEF00001A95E9F70A95D1F719
:1001600008950FE00AB900EF0BB90E94D50067EFC0
:1001700070E083E06BB94C9901C011C04D9902C089
:1001800071E00DC04E9902C072E009C04F9902C0E3
:1001900073E005C0803039F067958A95EBCF770F13
:1001A000770F780F08957FEF089512E309B10F3F9D
:0801B000E1F31A95D9F7089557
:00000001FF
