:020000020000FC
:020000003FC0FF
:1000800008E00EBF0FEF0DBF0FEF01B910981198E8
:1000900012980E948F000E947F00109811E01DD0DE
:1000A00004E151D0109810E818D0F1E0E8E515917E
:1000B0001D3019F0109A11D0FACF01E044D01098F9
:1000C00010EC0BD01591103019F0109A06D0FACF21
:1000D000FFCF12B9129A1298089501E034D002B1FC
:1000E00001700F931F93107F102BF3DF01E02BD0D3
:1000F0001F910F911295107F102BEBDF089528E2CE
:1001000031E04CE056E01098122FE7DF132FE5DFC7
:1001100004E119D0142FE1DF152FDFDF08950AEF76
:1001200012D00AEF10D0109810E3D3DF0AEF0BD0F3
:100130000AEA09D0109810E3CCDF02E004D010984E
:1001400012E3CBDF0895F02E08ECE02E0000EA94D5
:10015000E9F7FA94D1F70895544E2056584C2D41A2
:0C01600056520D4E686F6D3A203036008C
:00000001FF
