:020000020000FC
:020000003FC0FF
:1000800008E00EBF0FEF0DBF07E007B94098419899
:100090000FEF04B90AEF4CD00AEF4AD0409810E3B2
:1000A00043D00AE245D0409810E33ED002E040D071
:1000B000409810E339D028E331E04CE056E01FD0FF
:1000C00001E036D0409813E82FD0F1E0E2E415913A
:1000D0001D3029F001E02CD0419A26D0F8CF01E064
:1000E00027D0409812EC20D01591103029F001E073
:1000F0001FD0409A19D0F8CF01E01AD0FFCF01E00D
:1001000017D04098122F10D001E012D04098132F32
:100110000BD004E10DD04098142F06D001E008D098
:100120004098152F01D0089515B9429A4298089524
:10013000F02E08ECE02E0000EA94E9F7FA94D1F7EB
:10014000089548656C6C6F210D546869656E207464
:0C01500068616E2064616E6769750000D4
:00000001FF
